{
  "_format": "hh-sol-artifact-1",
  "contractName": "voting",
  "sourceName": "contracts/voting.sol",
  "abi": [
    {
      "inputs": [],
      "stateMutability": "nonpayable",
      "type": "constructor"
    },
    {
      "anonymous": false,
      "inputs": [
        {
          "indexed": false,
          "internalType": "address",
          "name": "_voterAddr",
          "type": "address"
        }
      ],
      "name": "registrationSuccess",
      "type": "event"
    },
    {
      "anonymous": false,
      "inputs": [
        {
          "indexed": true,
          "internalType": "uint256",
          "name": "_candId",
          "type": "uint256"
        }
      ],
      "name": "votedEvent",
      "type": "event"
    },
    {
      "inputs": [],
      "name": "candCounter",
      "outputs": [
        {
          "internalType": "uint256",
          "name": "",
          "type": "uint256"
        }
      ],
      "stateMutability": "view",
      "type": "function"
    },
    {
      "inputs": [
        {
          "internalType": "uint256",
          "name": "",
          "type": "uint256"
        }
      ],
      "name": "candidates",
      "outputs": [
        {
          "internalType": "uint256",
          "name": "id",
          "type": "uint256"
        },
        {
          "internalType": "string",
          "name": "name",
          "type": "string"
        },
        {
          "internalType": "uint256",
          "name": "voteCount",
          "type": "uint256"
        }
      ],
      "stateMutability": "view",
      "type": "function"
    },
    {
      "inputs": [
        {
          "internalType": "address",
          "name": "_voter",
          "type": "address"
        }
      ],
      "name": "getVoter",
      "outputs": [
        {
          "internalType": "bool",
          "name": "",
          "type": "bool"
        }
      ],
      "stateMutability": "view",
      "type": "function"
    },
    {
      "inputs": [
        {
          "internalType": "address",
          "name": "addr",
          "type": "address"
        }
      ],
      "name": "registerVoter",
      "outputs": [],
      "stateMutability": "nonpayable",
      "type": "function"
    },
    {
      "inputs": [
        {
          "internalType": "uint256",
          "name": "_candId",
          "type": "uint256"
        }
      ],
      "name": "vote",
      "outputs": [],
      "stateMutability": "nonpayable",
      "type": "function"
    },
    {
      "inputs": [],
      "name": "voterCounter",
      "outputs": [
        {
          "internalType": "uint256",
          "name": "",
          "type": "uint256"
        }
      ],
      "stateMutability": "view",
      "type": "function"
    },
    {
      "inputs": [
        {
          "internalType": "address",
          "name": "",
          "type": "address"
        }
      ],
      "name": "voters",
      "outputs": [
        {
          "internalType": "bool",
          "name": "voted",
          "type": "bool"
        },
        {
          "internalType": "bool",
          "name": "validated",
          "type": "bool"
        }
      ],
      "stateMutability": "view",
      "type": "function"
    }
  ],
  "bytecode": "0x60806040523480156200001157600080fd5b50620000586040518060400160405280600c81526020017f436f6e74657374616e7420310000000000000000000000000000000000000000815250620000a460201b60201c565b6200009e6040518060400160405280600c81526020017f436f6e74657374616e7420320000000000000000000000000000000000000000815250620000a460201b60201c565b62000500565b60026000815480929190620000b9906200015c565b919050555060405180606001604052806002548152602001828152602001600081525060016000600254815260200190815260200160002060008201518160000155602082015181600101908162000112919062000419565b506040820151816002015590505050565b7f4e487b7100000000000000000000000000000000000000000000000000000000600052601160045260246000fd5b6000819050919050565b6000620001698262000152565b91507fffffffffffffffffffffffffffffffffffffffffffffffffffffffffffffffff82036200019e576200019d62000123565b5b600182019050919050565b600081519050919050565b7f4e487b7100000000000000000000000000000000000000000000000000000000600052604160045260246000fd5b7f4e487b7100000000000000000000000000000000000000000000000000000000600052602260045260246000fd5b600060028204905060018216806200022b57607f821691505b602082108103620002415762000240620001e3565b5b50919050565b60008190508160005260206000209050919050565b60006020601f8301049050919050565b600082821b905092915050565b600060088302620002ab7fffffffffffffffffffffffffffffffffffffffffffffffffffffffffffffffff826200026c565b620002b786836200026c565b95508019841693508086168417925050509392505050565b6000819050919050565b6000620002fa620002f4620002ee8462000152565b620002cf565b62000152565b9050919050565b6000819050919050565b6200031683620002d9565b6200032e620003258262000301565b84845462000279565b825550505050565b600090565b6200034562000336565b620003528184846200030b565b505050565b5b818110156200037a576200036e6000826200033b565b60018101905062000358565b5050565b601f821115620003c957620003938162000247565b6200039e846200025c565b81016020851015620003ae578190505b620003c6620003bd856200025c565b83018262000357565b50505b505050565b600082821c905092915050565b6000620003ee60001984600802620003ce565b1980831691505092915050565b6000620004098383620003db565b9150826002028217905092915050565b6200042482620001a9565b67ffffffffffffffff81111562000440576200043f620001b4565b5b6200044c825462000212565b620004598282856200037e565b600060209050601f8311600181146200049157600084156200047c578287015190505b620004888582620003fb565b865550620004f8565b601f198416620004a18662000247565b60005b82811015620004cb57848901518255600182019150602085019450602081019050620004a4565b86831015620004eb5784890151620004e7601f891682620003db565b8355505b6001600288020188555050505b505050505050565b610d1f80620005106000396000f3fe608060405234801561001057600080fd5b506004361061007d5760003560e01c806338db6dd31161005b57806338db6dd3146100ee5780634d50ba3a1461010a578063a3ec138d14610128578063d4f50f98146101595761007d565b80630121b93f146100825780631220b8d51461009e5780633477ee2e146100bc575b600080fd5b61009c60048036038101906100979190610797565b610189565b005b6100a66103b1565b6040516100b391906107d3565b60405180910390f35b6100d660048036038101906100d19190610797565b6103b7565b6040516100e59392919061087e565b60405180910390f35b6101086004803603810190610103919061091a565b610469565b005b6101126105e8565b60405161011f91906107d3565b60405180910390f35b610142600480360381019061013d919061091a565b6105ee565b604051610150929190610962565b60405180910390f35b610173600480360381019061016e919061091a565b61062c565b604051610180919061098b565b60405180910390f35b33816000808373ffffffffffffffffffffffffffffffffffffffff1673ffffffffffffffffffffffffffffffffffffffff16815260200190815260200160002060000160019054906101000a900460ff16610219576040517f08c379a0000000000000000000000000000000000000000000000000000000008152600401610210906109f2565b60405180910390fd5b6000808373ffffffffffffffffffffffffffffffffffffffff1673ffffffffffffffffffffffffffffffffffffffff16815260200190815260200160002060000160009054906101000a900460ff16156102a8576040517f08c379a000000000000000000000000000000000000000000000000000000000815260040161029f90610a5e565b60405180910390fd5b6000811180156102ba57506002548111155b6102f9576040517f08c379a00000000000000000000000000000000000000000000000000000000081526004016102f090610aca565b60405180910390fd5b60016000803373ffffffffffffffffffffffffffffffffffffffff1673ffffffffffffffffffffffffffffffffffffffff16815260200190815260200160002060000160006101000a81548160ff02191690831515021790555060016000848152602001908152602001600020600201600081548092919061037a90610b19565b9190505550827ffff3c900d938d21d0990d786e819f29b8d05c1ef587b462b939609625b684b1660405160405180910390a2505050565b60025481565b60016020528060005260406000206000915090508060000154908060010180546103e090610b90565b80601f016020809104026020016040519081016040528092919081815260200182805461040c90610b90565b80156104595780601f1061042e57610100808354040283529160200191610459565b820191906000526020600020905b81548152906001019060200180831161043c57829003601f168201915b5050505050908060020154905083565b806000808273ffffffffffffffffffffffffffffffffffffffff1673ffffffffffffffffffffffffffffffffffffffff16815260200190815260200160002060000160019054906101000a900460ff16156104f9576040517f08c379a00000000000000000000000000000000000000000000000000000000081526004016104f090610c0d565b60405180910390fd5b6003600081548092919061050c90610b19565b91905055506040518060400160405280600015158152602001600115158152506000808473ffffffffffffffffffffffffffffffffffffffff1673ffffffffffffffffffffffffffffffffffffffff16815260200190815260200160002060008201518160000160006101000a81548160ff02191690831515021790555060208201518160000160016101000a81548160ff0219169083151502179055509050507f2f12efb1605dc3bcb107bd7d8a16ef0e3a63c2a43c616657589c4305913c9b74826040516105dc9190610c3c565b60405180910390a15050565b60035481565b60006020528060005260406000206000915090508060000160009054906101000a900460ff16908060000160019054906101000a900460ff16905082565b6000816000808273ffffffffffffffffffffffffffffffffffffffff1673ffffffffffffffffffffffffffffffffffffffff16815260200190815260200160002060000160019054906101000a900460ff166106bd576040517f08c379a00000000000000000000000000000000000000000000000000000000081526004016106b490610cc9565b60405180910390fd5b8273ffffffffffffffffffffffffffffffffffffffff168373ffffffffffffffffffffffffffffffffffffffff1614801561074357506000808473ffffffffffffffffffffffffffffffffffffffff1673ffffffffffffffffffffffffffffffffffffffff16815260200190815260200160002060000160019054906101000a900460ff165b156107515760019150610756565b600091505b50919050565b600080fd5b6000819050919050565b61077481610761565b811461077f57600080fd5b50565b6000813590506107918161076b565b92915050565b6000602082840312156107ad576107ac61075c565b5b60006107bb84828501610782565b91505092915050565b6107cd81610761565b82525050565b60006020820190506107e860008301846107c4565b92915050565b600081519050919050565b600082825260208201905092915050565b60005b8381101561082857808201518184015260208101905061080d565b60008484015250505050565b6000601f19601f8301169050919050565b6000610850826107ee565b61085a81856107f9565b935061086a81856020860161080a565b61087381610834565b840191505092915050565b600060608201905061089360008301866107c4565b81810360208301526108a58185610845565b90506108b460408301846107c4565b949350505050565b600073ffffffffffffffffffffffffffffffffffffffff82169050919050565b60006108e7826108bc565b9050919050565b6108f7816108dc565b811461090257600080fd5b50565b600081359050610914816108ee565b92915050565b6000602082840312156109305761092f61075c565b5b600061093e84828501610905565b91505092915050565b60008115159050919050565b61095c81610947565b82525050565b60006040820190506109776000830185610953565b6109846020830184610953565b9392505050565b60006020820190506109a06000830184610953565b92915050565b7f566f746572206e6f742072656769737465726564000000000000000000000000600082015250565b60006109dc6014836107f9565b91506109e7826109a6565b602082019050919050565b60006020820190508181036000830152610a0b816109cf565b9050919050565b7f566f74657220616c726561647920766f74656400000000000000000000000000600082015250565b6000610a486013836107f9565b9150610a5382610a12565b602082019050919050565b60006020820190508181036000830152610a7781610a3b565b9050919050565b7f43616e646964617465204944206e6f742076616c696400000000000000000000600082015250565b6000610ab46016836107f9565b9150610abf82610a7e565b602082019050919050565b60006020820190508181036000830152610ae381610aa7565b9050919050565b7f4e487b7100000000000000000000000000000000000000000000000000000000600052601160045260246000fd5b6000610b2482610761565b91507fffffffffffffffffffffffffffffffffffffffffffffffffffffffffffffffff8203610b5657610b55610aea565b5b600182019050919050565b7f4e487b7100000000000000000000000000000000000000000000000000000000600052602260045260246000fd5b60006002820490506001821680610ba857607f821691505b602082108103610bbb57610bba610b61565b5b50919050565b7f766f74657220616c726561647920726567697374657265640000000000000000600082015250565b6000610bf76018836107f9565b9150610c0282610bc1565b602082019050919050565b60006020820190508181036000830152610c2681610bea565b9050919050565b610c36816108dc565b82525050565b6000602082019050610c516000830184610c2d565b92915050565b7f766f746572206e6f74207265676973746572656420696e20746865207379737460008201527f656d000000000000000000000000000000000000000000000000000000000000602082015250565b6000610cb36022836107f9565b9150610cbe82610c57565b604082019050919050565b60006020820190508181036000830152610ce281610ca6565b905091905056fea2646970667358221220778e07cc2dec467c1758feaaf7e05cda88f9094db2a5621267d14cf0abba6ae064736f6c63430008180033",
  "linkReferences": {},
  "deployedLinkReferences": {}
}